:1000000097110002938101801385411D1386812978
:100010003306A64093050000EF0090171705010076
:100020001305850A63080500177500001305C566EA
:10003000EF004109EF1090390325010093054100BD
:1000400013060000EF0040786F108075130101FF68
:100050002326810013040101930700001308000008
:1000600013850700930508000324C1001301010153
:1000700067800000130101FD232611022324810261
:1000800013040103B707400093870710232EF4FCE5
:100090008327C4FD9305800013850700EF100064DB
:1000A00093070500232CF4FC232004FE232204FEE6
:1000B000232604FE6F00C0048327C4FE93973700F5
:1000C000032784FDB307F70003A8470083A70700B1
:1000D0001386070093060800032504FE832544FECB
:1000E000EF00D03793070500138805002320F4FEA6
:1000F000232204FF8327C4FE938717002326F4FEE0
:100100000327C4FE8327C4FDE348F7FAB76701005D
:1001100003A6872983A6C729032504FE832544FE59
:10012000EF10003C930705006352F002B76701002F
:1001300093860722B7670100138607289305C00737
:10014000B76701001385C722EF10C052032584FD55
:10015000EF10504E130000008320C10203248102DF
:100160001301010367800000130101FD2326110222
:100170002324810213040103232EA4FC232604FE5E
:1001800003A7412223A2E12283A741220327C4FD22
:10019000B307F7002324F4FE832584FE37150000FF
:1001A000EF10102F2326A4FE8327C4FE63960702B8
:1001B00083A7411C83A7C70093860700130620036B
:1001C00093051000B76701001385C724EF10501E78
:1001D00013051000EF10C05C8327C4FE13850700D1
:1001E0008320C10203248102130101036780000000
:1001F000130101FE232E1100232C810013040102A0
:100200002326A4FE0325C4FEEF10D04213000000F5
:100210008320C101032481011301010267800000D2
:10022000130101FD2326110223248102130401037B
:10023000232CA4FC232EB4FC232AC4FC832784FD96
:100240002326F4FE832744FD0327C4FEB307F702E9
:100250002326F4FE0325C4FEEFF01FF12324A4FEA1
:10026000832784FE138507008320C10203248102B3
:100270001301010367800000130101FF23268100A1
:1002800013040101B7070004938707101307100038
:1002900023A0E700B7070004938707111307100096
:1002A00023A0E700B70700049387471023A00700A7
:1002B000130000000324C100130101016780000046
:1002C000130101FF2326810013040101B707000475
:1002D0009387071023A00700B7070004938707112F
:1002E00023A00700B70700049387471013071000E7
:1002F00023A0E700130000000324C1001301010143
:1003000067800000130101FE232E81001304010207
:100310002326A4FEB7070004938787100327C4FE93
:1003200023A0E700130000000324C1011301010210
:1003300067800000130101FE232E810013040102D7
:100340002326A4FEB70700049387C7100327C4FE23
:1003500023A0E700130000000324C10113010102E0
:1003600067800000130101FD23261102232481026E
:100370002322910213040103232EA4FC232CB4FC9A
:10038000232AC4FC2328D4FC832784FD2322F4FEE3
:10039000232604FE6F00C003832544FE0325C4FE0C
:1003A000EF00C05393070500938607008327C4FE20
:1003B00093972700032704FDB307F7001387160060
:1003C00023A0E7008327C4FE938717002326F4FEAB
:1003D0000327C4FE832784FDE340F7FC232604FEA5
:1003E0006F00400A232404FE6F0040080327C4FE68
:1003F000832784FEB307F700832584FD1385070058
:10040000EF00005693070500138607000327C4FD7D
:100410009307070093972700B386E7000327C4FEDE
:100420009307070093975700B387E74093974700D8
:1004300013870700832744FDB384E70093850600F4
:1004400013050600EF008049930705001387070096
:10045000832784FE93972700B387F40023A0E70047
:10046000832784FE938717002324F4FE032784FE4A
:10047000832784FDE34CF7F68327C4FE9387170098
:100480002326F4FE0327C4FE8327C4FDE34CF7F4C0
:10049000130000008320C10203248102832441024F
:1004A0001301010367800000130101FD23261102DF
:1004B0002324810223222103232031031304010377
:1004C000232EA4FC232CB4FC83A7411C83A7C700C4
:1004D000938607001306600193051000B7670100BB
:1004E0001385072AEF10C06C83A7411C03A7C70020
:1004F000B76701001386872BB76701009385C72B69
:1005000013050700EF100039232604FE6F000009D1
:100510000327C4FEB767666693877766B306F7025C
:10052000B319F7021389060093D639409357F74160
:10053000B386F6409387060093972700B387D700CA
:1005400093972700B306F740639C060083A7411CDE
:1005500083A7C700938507001305A000EF10404450
:1005600083A7411C83A6C7008327C4FE9397270057
:10057000032784FDB307F70083A70700138607004E
:10058000B76701009385C72C13850600EF108030F4
:100590008327C4FE938717002326F4FE0327C4FE97
:1005A0008327C4FDE346F7F683A7411C03A7C700D2
:1005B000B76701001386872BB76701009385072D66
:1005C00013050700EF10002D83A7411C83A7C70068
:1005D000938607001306600193051000B7670100BA
:1005E0001385472EEF10C05C130000008320C1026A
:1005F000032481020329410283290102130101031B
:1006000067800000130101FC232E81021304010402
:10061000232EA4FC232CB4FC232AC4FC2328D4FCC2
:100620002326E4FC2324F4FC232604FE6F0040026E
:100630008327C4FE939727000327C4FCB307F70062
:1006400023A007008327C4FE938717002326F4FE08
:100650000327C4FE832784FDE34CF7FC232604FE16
:100660006F00C0148327C4FE93972700032784FCE0
:10067000B307F70023A00700232404FE6F004008FF
:100680008327C4FE93972700032784FCB307F70052
:1006900083A607000327C4FE93070700939757001C
:1006A000B387E7409397470013870700832744FDEC
:1006B0003387E700832784FE93972700B307F7006B
:1006C00003A70700832784FE93972700032604FDD2
:1006D000B307F60083A707003307F7028327C4FE9A
:1006E00093972700032684FCB307F6003387E600C0
:1006F00023A0E700832784FE938717002324F4FEBA
:10070000032784FE832784FDE34CF7F6232404FEAD
:100710006F004008832784FE939727000327C4FCBB
:10072000B307F70083A607000327C4FE930707005B
:1007300093975700B387E7409397470013870700C5
:10074000832744FD3387E700832784FE93972700A0
:10075000B307F70003A707008327C4FE939727007A
:10076000032684FCB307F60083A707003307F702CC
:10077000832784FE939727000326C4FCB307F60063
:100780003387E60023A0E700832784FE93871700C2
:100790002324F4FE032784FE832784FDE34CF7F62D
:1007A0008327C4FE938717002326F4FE0327C4FE85
:1007B0008327C4FDE348F7EA130000000324C103C4
:1007C0001301010467800000130101FC232E1102B4
:1007D000232C8102130401042326A4FC2324B4FC4B
:1007E000930740072326F4FE9307C0072324F4FE53
:1007F00013064000374500001305058393050000EC
:10080000EFF01FA22322A4FE130640001305C00729
:1008100093050000EFF0DFA02320A4FE13064000A4
:100820001305C00793050000EFF09F9F232EA4FC43
:10083000130640001305400793050000EFF05F9E8C
:10084000232CA4FC832604FE032644FE832584FE79
:100850000325C4FEEFF01FB1EFF01FA2832784FD34
:100860000327C4FD832604FE032644FE832584FE5D
:100870000325C4FEEFF01FD9EFF09FA40327C4FCAB
:100880009307A00263D0E702832784FC83A70700B5
:1008900083C70700639807008325C4FD032584FEF2
:1008A000EFF09FC0032544FEEF10C058032504FE5F
:1008B000EF1040580325C4FDEF10C057032584FDF9
:1008C000EF10405793070000138507008320C103F2
:1008D00003248103130101046780000063400506BF
:1008E00063C6050613860500930505001305F0FF92
:1008F000630C060293061000637AB6006358C000CA
:100900001316160093961600E36AB6FE1305000050
:1009100063E6C500B385C5403365D50093D61600A0
:1009200013561600E39606FE6780000093820000CF
:10093000EFF05FFB13850500678002003305A040E0
:1009400063D80500B305B0406FF0DFF9B305B040E0
:1009500093820000EFF01FF93305A040678002008A
:100960009382000063CA0500634C0500EFF09FF717
:100970001385050067800200B305B040E35805FE0B
:100980003305A040EFF01FF63305B040678002004A
:100990001303F00013070500637EC3029377F7008B
:1009A0006390070A63920508937606FF1376F600B4
:1009B000B386E6002320B7002322B7002324B70024
:1009C0002326B70013070701E366D7FE631406006A
:1009D00067800000B306C34093962600970200008C
:1009E000B38656006780C6002307B700A306B7008A
:1009F0002306B700A305B7002305B700A304B7007B
:100A00002304B700A303B7002303B700A302B70072
:100A10002302B700A301B7002301B700A300B7006A
:100A20002300B7006780000093F5F50F93968500CB
:100A3000B3E5D50093960501B3E5D5006FF0DFF679
:100A40009396270097020000B38656009382000019
:100A5000E78006FA93800200938707FF3307F74089
:100A60003306F600E378C3F66FF0DFF33367B500C3
:100A70009303F0FF1377370063100710B7877F7F6A
:100A80009387F7F70326050083A60500B372F600E7
:100A90003363F600B382F200B3E262006392721035
:100AA0006316D6080326450083A64500B372F600F8
:100AB0003363F600B382F200B3E26200639E720C0D
:100AC0006316D6060326850083A68500B372F6005A
:100AD0003363F600B382F200B3E262006398720CF3
:100AE0006316D6040326C50083A6C500B372F600BC
:100AF0003363F600B382F200B3E262006392720CD9
:100B00006316D6020326050183A60501B372F6001B
:100B10003363F600B382F200B3E26200639C720AB0
:100B20001305450193854501E30ED6F4131706011D
:100B300093970601631EF7001357060193D706012A
:100B40003305F7409375F50F639005026780000049
:100B50001357070193D707013305F7409375F50F36
:100B600063940500678000001377F70F93F7F70F82
:100B70003305F740678000000346050083C6050083
:100B800013051500938515006314D600E31606FEC1
:100B90003305D64067800000130545009385450066
:100BA000E31CD6FC130500006780000013058500D8
:100BB00093858500E312D6FC1305000067800000D2
:100BC0001305C5009385C500E318D6FA1305000088
:100BD000678000001305050193850501E31ED6F823
:080BE00013050000678000000E
:100BE80083C7811D6394070497F7FFFF9387074125
:100BF80063880702130101FF1765010013054544C7
:100C08002326110097000000E70000008320C100A0
:100C180093071000238CF11C130101016780000069
:100C280093071000238CF11C678000006780000088
:100C380097F7FFFF9387873C638C07009385812094
:100C4800176501001305C53F170300006700000082
:040C580067800000B1
:100C5C0037081000130101FE1308F8FF3377B800B2
:100C6C00232A91003378D80093D4450113D346013D
:100C7C00131E3700232631011357D50113183800E2
:100C8C009357D60193F4F47F1373F37F232E110043
:100C9C00232C81002328210193D9F50193DEF60141
:100CAC003367C701131F350033E80701931F360064
:100CBC00338E64406384D91D6358C017630A0320C4
:100CCC00B70680009307F07F3368D800638EF4403A
:100CDC009307800363CAC73D9307F00163C6C755EA
:100CEC00130500023305C541B3D7CF01B316A800D5
:100CFC003399AF00B3E6F60033392001B357C8017E
:100D0C0033E926013307F74033092F41B3372F015D
:100D1C003306F7409317860063D2072A3707800003
:100D2C001307F7FF3374E600630E04341305040055
:100D3C00EF00500A130785FF93070002B387E740C3
:100D4C00B357F9003316E400B3E7C7003319E900D1
:100D5C00634C973033059740130615001307F001C9
:100D6C006346C744130700023307C740B356C90094
:100D7C003319E9003397E7003367D7003339200183
:100D8C003369270133D6C7009304000093777900A9
:100D9C00638007021377F90093074000630AF7009A
:100DAC0013074900333927013306260113090700BD
:100DBC009317860063D80720138514009307F07FE0
:100DCC0093850900630CF524B70780FF9387F7FF21
:100DDC00B377F6009398D70113593900939797007E
:100DEC00B3E8280193D7C7001375F57F9396C70016
:100DFC00131545018320C1010324810193D6C6003C
:100E0C009395F501B3E6A600B3E6B6008324410141
:100E1C00032901018329C10013850800938506006D
:100E2C00130101026780000063140E0C138314007D
:100E3C001373E37F63100328B367E701B368F8010A
:100E4C006396041E6380074C638808503309FF4186
:100E5C00B307074133362F013386C74093178600FB
:100E6C0063D4075A3389EF41B307E84033B62F01F7
:100E7C003386C74093890E006FF05FF1635AC00F41
:100E8C006308030CB70680009307F07F3368D80023
:100E9C00638EF4449307800363CCC7159307F0016A
:100EAC0063DAC73F13090EFE93070002B3562801FD
:100EBC00630AFE00130900043309C94133192801E0
:100ECC00B3EF2F013339F0013369D9006F00C01231
:100EDC00B367F801638607229307FEFF6384074418
:100EEC009306F07F6302DE20138E07006FF05FDE47
:100EFC00B305934063960428B367E7016382073C0C
:100F0C009387F5FF638C07509306F07F6382D52897
:100F1C00938507009307800363CEB7329307F001E4
:100F2C0063C2B74A93070002B387B7403319F7007F
:100F3C00B356BF00B317FF003369D900B337F000C5
:100F4C003357B7003369F9003308E8406F000031BC
:100F5C00B367F8016384073E9307FEFF638207289B
:100F6C009306F07F6304DE38138E07006FF09FF258
:100F7C0063160E1A9386140093F7E67F639A073E66
:100F8C00B367E701639E04346388074AB367F801CB
:100F9C006384073C3309FF01B3070701333FE901C1
:100FAC003386E7019317860063DA0700B70780FFE3
:100FBC009387F7FF3376F60093041000937779004C
:100FCC00E39A07DC9317D60193583900B3E8F8007D
:100FDC00935736001307F07F638AE4069397C70094
:100FEC0093D7C70013F5F47F938509006FF01FE0CA
:100FFC003369F801333920013309E901B337E901C9
:10100C003386E70093178600E3DA07FA938414001B
:10101C009307F07F6396F41E938509001305F07F08
:10102C0093070000930800006FF05FDC639C070AD5
:10103C0063840846931636009317D80193D636006E
:10104C00B3E8D70093890E0093573800B3E7F80044
:10105C00E38407FC930500001305F07FB707080035
:10106C00930800006FF09FD8370680FF1306F6FF39
:10107C0033F6C70093777900B384E440E39C07D040
:10108C006FF05FF413050900EF00C05413078501DE
:10109C009307F001E3D2E7CA130685FFB317C90023
:1010AC00130900006FF0DFCA3369F80133392001EE
:1010BC006FF09FC53309FF413306074133342F01CD
:1010CC00330486409317840063CC072CB3688900E3
:1010DC00E39C08C4930700009309000093040000EC
:1010EC006FF0DFEFE39808F6131535009317D7016F
:1010FC0013553500B3E8A700935737006FF01FF571
:10110C00131535009317D70113553500B3E8A70015
:10111C0093040E00935737006FF0DFEB33059340C9
:10112C00638A0414B70680009307F07F3367D700F7
:10113C006306F3389307800363C0A7289307F00175
:10114C0063C6A73293070002B387A7403319F70091
:10115C00B356AF00B317FF003369D900B337F000B3
:10116C003357A7003369F9003308E8003309F90154
:10117C00B337F90133860701930403006FF09FE83E
:10118C00B70680009307F07F3367D700E314F3D8DA
:10119C009317360093D737009318D801B3E817018B
:1011AC0093890E00935738006FF05FEA130715FE12
:1011BC009306000233D7E700630AD60093060004B7
:1011CC003386C6403396C7003369C90033392001D2
:1011DC003369E90013060000930400006FF01FDE72
:1011EC003309FF01B30707013336E9013386C70022
:1011FC009317860093041000E3D207DC93042000BD
:10120C00B70780FF9387F7FFB377F60013571900E2
:10121C0013791900336927019398F70133E92801F1
:10122C0013D617006FF09FB613090EFE930700023A
:10123C00B3562801630AFE00130900043309C9419F
:10124C0033192801B3EF2F013339F0013369D90079
:10125C006FF09FAB3369E7013339200133892F419C
:10126C00B3B72F013306F8409304030093890E00A3
:10127C006FF05FAAB367E701638C071C9307F5FF58
:10128C00638407229306F07F6304D5161385070049
:10129C006FF05FEA93070002B387C741B316F800FB
:1012AC003399FF0033D6CF01B3E6C60033392001A2
:1012BC00B357C80133E926013307F7006FF0DFD3CA
:1012CC009317360093D737009318D801B3E817015A
:1012DC00938405009357380093890E006FF09FCFCD
:1012EC00638807103369F801E31609D61315350026
:1012FC009317D70113553500B368F5009357370092
:10130C006FF0DFD463860810931636009317D8015C
:10131C0093D63600B3E8D70093890E009357380064
:10132C006FF0DFCB3309FF41B3070741333F2F0188
:10133C003386E741930410006FF0DF9D13153500E1
:10134C009317D70113553500B368F50093040E00BD
:10135C00935737006FF01FC8131535009317D7013B
:10136C0013553500B3E8A700935737006FF01FC72C
:10137C009307F07FE382F6CA3309FF013336E901A4
:10138C00B3070701B387C7009398F70113591900E6
:10139C0033E9280113D61700938406006FF01FC29F
:1013AC003389EF413307E84033B62F013304C7408C
:1013BC0093890E006FF05F973369E7013339200191
:1013CC006FF0DFDA938705FE93060002B357F70040
:1013DC00638AD50093060004B385B6403317B70073
:1013EC00336FEF003339E0013369F9006FF01FE719
:1013FC009317360093D737009318D801B3E8170129
:10140C00935738006FF09FC4B368C900E39808BACB
:10141C0093070000930900006FF05FBC3389EF4124
:10142C00B307E84033B62F013386C74093890E00CB
:10143C00930410006FF01F8E931636009317D8018B
:10144C0093D63600B3E8D700935738006FF01FB926
:10145C00931636009317D80193D63600B3E8D7000D
:10146C0093040500935738006FF0DFB6930705FE21
:10147C0093060002B357F700630AD50093060004E5
:10148C003385A6403317A700336FEF003339E001E3
:10149C003369F9006FF09FCD930500001305F07FC1
:1014AC00B70708006FF09F943309FF01B3070701DA
:1014BC003336F9013386C7006FF09FD3931636008D
:1014CC009317D80193D63600B3E8D700935738005A
:0414DC006FF0DFB717
:1014E00013D74501B70710009387F7FF13D84601BC
:1014F0001377F77F9308F07F33F3B700130E0500DF
:10150000B3F7D70093D5F501930E06001378F87F53
:1015100093D6F601630A170563021803631C0704D8
:101520003365A3006316080233E6C70063120602A0
:1015300093060000630205066F000002B3E8C700CF
:10154000E38E08FC930620001385060067800000E8
:1015500063020504638ED50493061000638E0502B2
:101560009306F0FF6F0040033365A300E31C05FC06
:101570006308E8026316080033E6C700E30E06FCC2
:10158000E39CD5FC6356E802E39C06FC930610003E
:101590006F008000E38606FC13850600678000006C
:1015A00033E6C700E30E06FC930620006FF0DFF978
:1015B000634A0701E3E267FA630CF3009306000055
:1015C000E37CF3FCE38E05F8938605006FF0DFFC07
:1015D000E3E4CEF993060000E370DEFD6FF09FFEBA
:1015E000B70701006374F5049307F00F13070002B7
:1015F00063EEA70097570100938787D0B387A700B2
:1016000003C507003305A740678000001355850018
:10161000975701009387C7CEB387A70003C507007C
:10162000130780013305A74067800000B70700015A
:101630006362F5021355850197570100938747CCE4
:10164000B387A70003C50700130780003305A74031
:10165000678000001355050197570100938747CA1B
:10166000B387A70003C50700130700013305A74090
:04167000678000008F
:101674009387411C83A70700130101FF1308060089
:1016840023261100930805001387050003A5C7004E
:101694001386060097570100938747D6630C08000A
:1016A4009386080097550100938545D6EF000016F0
:1016B400EF50407497570100938707D513880700AC
:0416C4006FF01FFEA6
:1016C800130101FF930606001306000023261100EC
:0416D800EFF0DFF957
:1016DC009387411C138605009305050003A507009D
:0416EC006F0040004B
:1016F000B385C502130101FF2324810023261100B5
:10170000EF00407413040500630805020326C5FFBB
:10171000130740021376C6FF1306C6FF6360C706B1
:10172000930630019307050063E2C60223A0070079
:1017300023A2070023A40700130504008320C1008F
:1017400003248100130101016780000023200500AC
:10175000232205009307B00163F0C704232405008A
:101760002326050093070501E312E6FC2328050064
:1017700093078501232A05006FF05FFB93050000A6
:10178000EFF00FA1130504008320C10003248100A2
:101790001301010167800000930785006FF01FF9B6
:1017A000130101FF9305000023248100232611006B
:1017B00013040500EF508067976701009387C78C7B
:1017C00003A507008327C50363840700E78007009C
:0817D00013050400EF40512451
:1017D800130101FC1303C1022326D102930603005F
:1017E800232E11002328E102232AF102232C0103CE
:1017F800232E110323266100EF1000188320C10156
:081808001301010467800000D8
:10181000130101FC2324C102138605009305050072
:101820001385411C03250500130381022326D102E1
:1018300093060300232E11002328E102232AF1023C
:10184000232C0103232E110323266100EF104013E4
:0C1850008320C101130101046780000027
:10185C00130101FC1303C1022326D10293060300DA
:10186C00232E11002328E102232AF102232C010349
:10187C00232E110323266100EF20C0678320C101B2
:08188C00130101046780000054
:10189400130101FC2324C1021386050093050500EE
:1018A4001385411C03250500130381022326D1025D
:1018B40093060300232E11002328E102232AF102B8
:1018C400232C0103232E110323266100EF20006340
:0C18D4008320C1011301010467800000A3
:1018E000130101FE232C8100232A9100232E1100D5
:1018F000930405001304060063060500832785038F
:10190000638E07048327440693F717006398070044
:101910008357C40093F70720638A070613850400E2
:1019200013060400EF00D04F8327440693040500FC
:1019300093F71700639807008357C40093F70720B5
:10194000638607028320C1010324810113850400FB
:101950008324410113010102678000002326B100A6
:10196000EF5090308325C1006FF0DFF90325840527
:10197000EF00C0318320C1010324810113850400DD
:1019800083244101130101026780000003258405BF
:101990002326B100EF00002E8325C1006FF01FF851
:1019A000130101FF9387411C2322910083A40700A8
:1019B000232481002320210123261100130905007F
:1019C000138405006386040083A7840363820706EB
:1019D0008327440693F71700639807008357C400D2
:1019E00093F70720638E070613850400130604008F
:1019F00093050900EF00D0428327440693040500B5
:101A000093F71700639807008357C40093F70720E4
:101A1000638607028320C10003248100138504002C
:101A200003290100832441001301010167800000A4
:101A300013850400EF5050236FF09FF903258405B0
:101A4000EF00C0248320C10003248100138504001B
:101A50000329010083244100130101016780000074
:0C1A600003258405EF0000216FF01FF843
:101A6C00130101FC232A9102B384C6029307C1001F
:101A7C00232AF10093071000232C81022328210331
:101A8C002326310323244103232E11022326B100E4
:101A9C00232CF10023289100232E9100130A060019
:101AAC00138906009309050013040700630605005B
:101ABC0083278503638A070A832744060317C40018
:101ACC0093F717009316070193D606016396070048
:101ADC0093F70620638C070A9397260163C20702CB
:101AEC0083274406B72600003367D700B7E6FFFF0D
:101AFC009386F6FFB3F7D7002316E4002322F406EF
:101B0C00130641019305040013850900EF6080273B
:101B1C008327440693F71700630C0504638A0702B6
:101B2C008326C101B384D44033D944038320C10339
:101B3C0003248103130509008324410303290103B2
:101B4C008329C102032A810213010104678000006A
:101B5C008357C40093F70720E39407FC03258405FF
:101B6C00EF0000126FF0DFFBEF50500F6FF0DFF45F
:101B7C00E39E07FA8357C40093F70720E39807FA0C
:101B8C0003258405EF00C00F6FF05FFA0325840571
:101B9C00EF00800D0317C4009316070193D60601BE
:041BAC006FF09FF344
:101BB0009387411C138706009306060013860500D1
:0C1BC0009305050003A507006FF05FEA25
:101BCC00130101FF232481002320210117E4FFFFCF
:101BDC001304844217E9FFFF1309094233098940B2
:101BEC00232611002322910013592940630E09006A
:101BFC00930400008327040093841400130444000E
:101C0C00E7800700E31899FE17E4FFFF1304C43EB6
:101C1C0017E9FFFF1309493E33098940135929403D
:101C2C00630E0900930400008327040093841400BE
:101C3C0013044400E7800700E31899FE8320C100D9
:101C4C0003248100832441000329010013010101B5
:041C5C00678000009D
:041C60006780000099
:041C64006780000095
:041C68006780000091
:041C6C00678000008D
:041C70006780000089
:041C74006780000085
:081C7800130510006780000055
:081C800013051000678000004D
:041C88006780000071
:041C8C00678000006D
:101C90009387411C138605009305050003A50700E3
:041CA0006F00400091
:101CA4009307800063FCB712130101FE232A9100FD
:101CB40023263101232E1100232C81002328210106
:101CC400232441019304B60093076001930905009E
:101CD40063FA970C93F484FF63CA040C63E8C40C9E
:101CE400930700011384050063F4F5001304000155
:101CF40093050401B385950013850900EF00401492
:101D040013090500630A050A13850900EF00101082
:101D1400B3778902130A89FF638607069305F4FFE4
:101D2400B3078040B305B900B3F5F500938585FF8B
:101D3400338745419307F00063D6E70A138A050009
:101D44008327C9FF930509001385090093F7C7FF8B
:101D5400B387E74093E617002322DA00B307FA00BB
:101D640083A6470093E6160023A2D7008327C9FF62
:101D740093F71700B3E7E700232EF9FEEF509051D5
:101D840013098A0083274A001307F00093F7C7FF5B
:101D9400B38797406340F70613850900EF00900767
:101DA4006F00800193040001E3FCC4F29307C000B8
:101DB40023A0F900130900008320C1010324810139
:101DC4001305090083244101032901018329C1006A
:101DD400032A8100130101026780000093050600B5
:101DE4006F000006B385850033874541138A0500DB
:101DF4006FF01FF5B3059A0093E7170023A2F500CF
:101E040083274A00938585001385090093F71700FB
:101E1400B3E4970023229A00EF50D0476FF0DFF726
:101E24009387411C9305050003A507006F0040013B
:101E34009387411C9305050003A507006F50904547
:101E4400130101FD232291022320210323261102E1
:101E540023248102232E3101232C4101232A510101
:101E64002328610123267101232481012322910166
:101E74009384B500930760011309050063E4970692
:101E84009307000163ECB720EF004078930400014E
:101E94009307800113062000938981C2B387F90058
:101EA40003A44700138787FF6302E42483274400C5
:101EB4008326C4000326840093F7C7FFB307F40006
:101EC40003A747002326D60023A4C60013671700E0
:101ED4001305090023A2E700EF00C0731305840073
:101EE4006F00801C93F484FF63CA041A63E8B41A75
:101EF400EF00C0719307701F63F0974893D7940065
:101F0400638E071C130740006364F74093D7640093
:101F1400138697031385870393163600938981C22A
:101F2400B386D90003A44600938686FF638C860299
:101F3400832744009305F00093F7C7FF3387974046
:101F440063C0E502635007360324C400638C860033
:101F54008327440093F7C7FF33879740E3D4E5FE14
:101F64001306050003A40901138801C3630C0419B3
:101F7400832544001307F00093F5C5FFB38795400C
:101F84006342F74223AE01C323AC01C363DC073EC3
:101F94009307F01F63EEB73093D535009387150090
:101FA4009397370003A54900B387F90083A6070078
:101FB40093D52540130710003317B7003367A700E4
:101FC400938587FF2326B4002324D40023A6E1C2EB
:101FD40023A0870023A6860093572640930610006B
:101FE400B396F600636AD712B3F7E6006394070268
:101FF400939616001376C6FFB3F7E6001306460061
:10200400639A070093961600B3F7E600130646009A
:10201400E38A07FE1305F00093183600B38819010C
:10202400938508001303060003A4C500639A850082
:102034006F004030635A07300324C400638C852E3C
:102044008327440093F7C7FF33879740E354E5FEA3
:102054008326C4000326840093E514002322B400DD
:102064002326D60023A4C600B304940023AE91C251
:1020740023AC91C29366170023A6040123A4040190
:1020840023A2D400B307F4001305090023A0E7003A
:10209400EF004058130584006F0000019307C0004F
:1020A4002320F900130500008320C10203248102C8
:1020B40083244102032901028329C101032A8101E6
:1020C400832A4101032B0101832BC100032C8100CE
:1020D400832C410013010103678000009306002054
:1020E400130600041305F0036FF05FE303A4C700B5
:1020F40013062600E39C87DA03A40901138801C3AD
:10210400E31804E703A749009357264093061000F9
:10211400B396F600E37AD7EC03A48900832A44003B
:1021240093FBCAFF63E89B00B3879B401307F0004F
:102134006346F7149387811F138C811C83AA0700BD
:1021440003270C009307F0FF330A7401B38A540188
:10215400630CF732B71700009387F700B38AFA00CD
:10216400B7F7FFFFB3FAFA0093850A0013050900D5
:10217400EF00006B9307F0FF130B0500630EF526C9
:10218400636A4527938C812283A70C00B387FA00E6
:1021940023A4F12213870700630AAA3883260C00BC
:1021A4009307F0FF6382F63AB3074B41B387E70026
:1021B40023A4F122137C7B00630A0C2E330B8B4186
:1021C400B7170000130B8B00138AF7FFB30A5B01E8
:1021D4009387870033F74A01B3878741B387E74082
:1021E40033FA470193050A0013050900EF00406321
:1021F4009307F0FF6304F53A33056541B30A4501DB
:1022040083A70C0023A861C393EA1A00B307FA005A
:1022140023A4F12223225B01630C34331306F00060
:10222400637C76338326440013874BFF137787FF41
:1022340093F61600B3E6E6002322D400930550007B
:10224400B306E40023A2B60023A4B6006362E63614
:10225400832A4B0013040B001387011F0327070075
:102264006374F70023A8F11E1387411F0327070097
:102274006378F71823AAF11E6F00801813E714007F
:102284002322E400B304940023A891C293E7170027
:102294001305090023A2F400EF00C03713058400DE
:1022A4006FF09FE08326C400032684006FF01FC1F3
:1022B40093D79500130740006374F7121307400186
:1022C4006360F7229386C7051387B7059396360094
:1022D400B386D90083A70600938686FF638AF61A1D
:1022E40003A747001377C7FF63F6E50083A78700BA
:1022F400E398F6FE83A6C70003A749002326D4006B
:102304002324F40023A4860023A687006FF0DFCCE7
:10231400130740016378F710130740056360F71E45
:1023240093D7C4001386F7061385E7069316360081
:102334006FF0DFBE1303130093773300938585009A
:10234400E39407CE6F00C00FB307F40003A7470060
:102354008326C400032684001367170023A2E70022
:102364002326D6001305090023A4C600EF00802A03
:10237400130584006FF05FD313D634009387840071
:102384006FF09FB1B305B40083A74500130509009E
:1023940093E7170023A2F500EF00C027130584007C
:1023A4006FF09FD013E714002322E400B3049400D9
:1023B40023AE91C223AC91C213E7170023A60401F4
:1023C40023A4040123A2E400B305B4001305090007
:1023D40023A0F500EF000024130584006FF0DFCC88
:1023E40093D76500938697031387870393963600E4
:1023F4006FF01FEE6302341303A48900832A4400A0
:1024040093FACAFFB3879A4063E69A001307F00071
:10241400E346F7E613050900EF00C01F13050000AB
:102424006FF09FC81386C7051385B705931636004A
:102434006FF0DFAE83A788001306F6FF6394171DC1
:1024440093773600938888FFE39607FE03A7490035
:1024540093C7F6FFB3F7E70023A6F1C293961600DD
:10246400E3ECD7CAE38A06CA33F7F600631A070017
:102474009396160033F7F60013034300E30A07FEAE
:10248400130603006FF05FB9938A0A016FF0DFCD82
:1024940003A5490093552740130710003317B700CD
:1024A4003367A70023A6E1C26FF05FE5B71700000A
:1024B4001387F7FF330A5B01337AEA00B387474196
:1024C40033FAE70093050A0013050900EF004035CD
:1024D4009307F0FFE312F5D2130A00006FF05FD206
:1024E400130740056360F70893D7C5009386F70682
:1024F4001387E706939636006FF09FDD13074015A8
:102504006360F70893D7F40013868707138577076A
:10251400931636006FF09FA0938C812283A70C0042
:102524003387FA0023A4E1226FF05FC793164A01B0
:10253400E39606C603A48900B38A5B0193EA1A00F2
:10254400232254016FF05FD123A4611D6FF09FC655
:1025540013040B006FF05FD0930710002322FB00DD
:102564006FF05FEB130740156362F70693D7F5002E
:102574009386870713877707939636006FF05FD5A6
:10258400130740556362F70693D724011386D707D0
:102594001385C707931636006FF05F98130C8CFFF2
:1025A400B38A8A01B38A6A41130A00006FF05FC5D7
:1025B4009305840013050900EF50C04D03A489005E
:1025C40083A70C00832A44006FF01FC913074055EA
:1025D4006364F70293D725019386D7071387C70748
:1025E400939636006FF0DFCE9306803F1306F00714
:1025F4001305E0076FF09F929306803F1307E007EF
:0C2604006FF01FCD83A749006FF05FE569
:08261000138501286FF00FE6AD
:08261800138501286FF00FE7A4
:10262000130101FE232C8100232A9100232E110087
:102630009304050013040600630605008327850341
:10264000638207088327440693F7170063980700FF
:102650008357C40093F70720638807088327840003
:102660009387F7FF2324F40063DC0700032784012A
:1026700063C2E70693F7F50F1307A000638CE70426
:102680008327040093F4F50F138717002320E40039
:102690002380B7008327440693F717006398070049
:1026A0008357C40093F70720638A07048320C1017E
:1026B00003248101138504008324410113010102D5
:1026C000678000002326B100EF40105A8325C10027
:1026D0006FF05FF71385040013060400EF40C0415C
:1026E000930405006FF01FFB032584052326B1002A
:1026F000EFF04FD88325C1006FF05FF60325840506
:10270000EFF0CFD88320C101032481011385040099
:0C271000832441011301010267800000D6
:10271C00130101FF9387411C2322910083A407001E
:10272C0023248100232021012326110013090500F5
:10273C00138405006386040083A78403638407085D
:10274C008327440693F71700639807008357C40048
:10275C0093F70720638A0708832784009387F7FF82
:10276C002324F40063DC07000327840163C2E7061B
:10277C009377F90F1307A000638CE70483270400F9
:10278C009374F90F138717002320E400238027018B
:10279C008327440693F71700639807008357C400F8
:1027AC0093F70720638807048320C100032481006A
:1027BC001385040003290100832441001301010146
:1027CC006780000013850400EF4050496FF05FF7FD
:1027DC00138504001306040093050900EF40003133
:1027EC00930405006FF0DFFA03258405EFF0CFC7E3
:1027FC006FF09FF603258405EFF08FC88320C1008E
:10280C000324810013850400032901008324410063
:08281C001301010167800000B7
:10282400130101FF2324810013040500138505000F
:1028340023AA012823261100EF30D1199307F0FFB2
:10284400630AF5008320C100032481001301010100
:10285400678000009387412983A70700E38407FE6C
:102864002320F4008320C10003248100130101010B
:042874006780000079
:1028780083A74506130101FD2328610123261102C0
:10288800232481022322910223202103232E3101B4
:10289800232C4101232A510123267101232481017C
:1028A80013972701130B06006358070A832786002E
:1028B80013890500130A0500832B0600930AF0FF0D
:1028C8006388070803AC4B0003A40B0093592C0042
:1028D80063860906930400006F00C00013044400D7
:1028E800638C9904832504001306090013050A0064
:1028F800EF40907293841400E31255FF1305F0FF24
:102908008320C1020324810223240B0023220B000D
:1029180083244102032901028329C101032A810179
:10292800832A4101032B0101832BC100032C810061
:10293800130101036780000083278B00137CCCFF01
:10294800B38787412324FB00938B8B00E39C07F616
:10295800130500006FF0DFFAEF5000436FF05FFAE5
:1029680003278600630407006FF09FF02322060008
:08297800130500006780000058
:10298000130101ED23202113232E31112324811162
:10299000232611122324811223229112232C411168
:1029A000232A511123286111232671112322911109
:1029B0002320A111232EB10F2326D1009309050056
:1029C00013890500130C06006306050083278503A1
:1029D000E386071C832649060317C90093F61600F1
:1029E0009317070193D707016396060093F6072014
:1029F000E388066A9396270163C606028326490682
:102A0000B7270000B367F70037E7FFFF1307F7FFAB
:102A100033F7E6002316F900939707012322E9060E
:102A200093D7070113F787006308071603270901E7
:102A30006304071613F7A7019306A0006300D718D5
:102A4000B787FFFF9304C10493C707832320910432
:102A5000232401042322010423280100232C010044
:102A600023200102232E010023240100974A0100A4
:102A7000938A0A9D2322F10213840400930C0C0014
:102A800083C70C006380071813075002E384E75ED6
:102A9000138A0C006F00C0006380E716130A0D0054
:102AA00083471A00130D1A00E39807FE330C9D416B
:102AB000630A0C1403278104832741042320940113
:102AC0003307EC0093871700232284012324E104B9
:102AD0002322F104930670001304840063D0F602ED
:102AE000E300075613060104930509001385090046
:102AF000EFF09FD8631005121384040003278100B0
:102B000083471A00330787012324E100638C070EF3
:102B1000930C1D0003471D00A30D0102130CF0FFD1
:102B2000130A0000930B0000130DA002938C1C00ED
:102B30009306A005930707FE63EAF6209397270004
:102B4000B387570183A70700B38757016780070042
:102B500013850900EF80C0388327450013850700DF
:102B6000232EF100EFA080792320A102130B050092
:102B700013850900EF80C03683278500232CF100E0
:102B8000E31C0B5803C70C006FF05FFA93EB0B02CA
:102B900003C70C006FF09FF9930509001385090026
:102BA000EF40000F630405006F1040128357C90007
:102BB0009306A00013F7A701E314D7E80317E90071
:102BC000E34007E803274906137717006318070057
:102BD00093F70720639407006F1000028326C1005B
:102BE00013060C009305090013850900EF10C013AC
:102BF0002324A1006F00C003330C9D41E30A0CF0B5
:102C00006FF05FEB83278104638407006F00D07C43
:102C100023220104032749068357C90013771700AD
:102C20006308070493F70704638407006F10C00567
:102C30008320C112032481120325810083244112C1
:102C4000032901128329C111032A8111832A411109
:102C5000032B0111832BC110032C8110832C4110F5
:102C6000032D0110832DC10F130101136780000094
:102C700013F70720E31807FA03258905EFF00F8102
:102C80008357C9006FF01FFA974701009387079297
:102C90002328F10093F70B02638207468327C100C4
:102CA0009386770093F686FF83AD060003AE460059
:102CB000938786002326F10093F61B0063860600A7
:102CC000B3E6CD01E396064813FDFBBF13072000D2
:102CD000A30D01029306F0FF630ADC64B3E6CD01A5
:102CE000937BFDF7E39E0620631C0C72E31207360C
:102CF000937D1D00130B010FE39C0D38130D0C0089
:102D00006354BC01138D0D008347B103B337F0004A
:102D1000330DFD006F004005130A0000130607FD88
:102D2000938C1C0093172A0003C7FCFF338A4701CA
:102D3000131A1A00330A460193079000130607FD81
:102D4000E3F0C7FE930707FEE3FAF6DEE30C07EABB
:102D50002306E108A30D0102130D1000930D1000CE
:102D6000130BC108130C000093FF2B0063840F00AA
:102D7000130D2D000327410413F84B08832781040A
:102D8000930617001386060063160800330EAA4147
:102D9000E34CC0178345B10393068400638C05029E
:102DA0001307B103938717002320E40013071000D3
:102DB0002322E4002324F1042322C104130770001A
:102DC000E342C70C1307060013840600130616001F
:102DD00093868600638E0F041307C1039387270031
:102DE0002320E400130720002322E4002324F1041D
:102DF0002322C10413077000E35AC70EE38207269B
:102E0000130601049305090013850900232A010113
:102E1000EFF09FA6E31005E0032741048327810418
:102E2000032841019306410513061700138404008B
:102E300093050008630AB864330CBC41634680758F
:102E4000B387FD00232064012322B4012324F1046D
:102E50002322C104130770006352C702638207165E
:102E6000130601049305090013850900EFF0DFA0A4
:102E7000E31205DA832781049386040093F84B005C
:102E8000638608003304AA41634880146354AA018E
:102E9000130A0D0003278100330747012324E100B3
:102EA000639E077A23220104138404006FF05FBD40
:102EB00093F70B0213ED0B01639207548327C100B4
:102EC000138747008327C100130E00002326E1006B
:102ED00083AD0700130710006FF09FDF8327C10049
:102EE000A30D010203AB070013874700E30C0B3A65
:102EF0009307F0FF2326E100E30AFC2613060C00EB
:102F00009305000013050B00EF80402E0327C1003E
:102F1000E3040554B30D6541130C00006FF01FDE90
:102F200093F70B02639007480327C10093F70B0147
:102F300013074700E396075C93F70B04E382073A15
:102F40008327C100138D0B002326E100839D07001A
:102F500013DEFD4113070E006346073A1307F0FF27
:102F6000630AEC0033E7CD01937BFDF7E300070E26
:102F7000138D0B00E3160E2293079000E3E2B723B4
:102F800093870D03A307F10E930B0D00930D100013
:102F9000130BF10E6FF09FD60327C100A30D0102A2
:102FA000130D100083270700130747002326E100B5
:102FB0002306F108930D1000130BC1086FF09FDA80
:102FC0002322010493F84B00E38808023304AA414A
:102FD000E354800293860400130700010326410492
:102FE000E35C8748973E0100938E4E5F130C00010F
:102FF000930D7000138B0E006F0080019305260067
:103000009386860013060700130404FF63588C049C
:10301000938707011307160023A0660123A28601E8
:103020002324F1042322E104E3DAEDFC6386074460
:10303000130601049305090013850900EFF0DF83EF
:10304000E31A05BC03264104130404FF832781040B
:103050009386040093051600E34C8CFA930E0B0044
:10306000B387870023A0D60123A286002324F1047E
:103070002322B10413077000E35AB7E0638E07768A
:10308000130601049305090013850900EFF0CFFE34
:10309000E31205B8832781046FF05FDF93EB0B0821
:1030A00003C70C006FF09FA893F70B0263960734D9
:1030B0008327C10093F60B011387470083A70700FE
:1030C000E394064493F60B04E38E0622939D0701D6
:1030D0002326E10093DD0D01130E0000138D0B007C
:1030E000130710006FF0DFBE973701009387474D3D
:1030F0002328F10093F70B02E39207BA0326C100DD
:1031000093F60B0183270600130646002326C10011
:10311000639E067E93F60B046386067E939D0701ED
:1031200093DD0D01130E00006FF01FB98327C1005E
:1031300003274102130E000083AD07009387470069
:103140002326F1009737010093878747231EE1026A
:1031500013ED2B002328F100130720006FF05FB759
:1031600093F70B02639407268327C10093F60B01A4
:103170001387470083A70700E390063893F60B04F4
:10318000E3820614939D070193DD0D01130E0000E9
:1031900093880B002326E1006F0040258326C100A1
:1031A00093F70B02138746006396077893F70B019A
:1031B000E39E070C93F70B04E39A071A93F80B208E
:1031C000E386080C8327C1002326E1000327810042
:1031D00083A707002380E7006FF09F8A03C70C00D6
:1031E0009307C006E304F70893EB0B016FF01F94FD
:1031F00003C70C0093078006E302F70893EB0B0468
:103200006FF0DF928327C10003C70C0003AA0700F9
:10321000938747002326F100E35A0A90330A40417E
:1032200093EB4B006FF09F9093EB1B0003C70C00D8
:103230006FF0DF8F8347B10303C70C00E398078E5D
:1032400093070002A30DF1026FF05F8E03C70C001D
:1032500093EB4B006FF09F8D9307B002A30DF1022B
:1032600003C70C006FF09F8C03C70C0093871C00F2
:10327000E30CA723938C0700130607FD9307900028
:10328000130C0000E3E8C78A938C1C0093172C00F2
:1032900003C7FCFF338C8701131C1C00330CCC00CC
:1032A00093079000130607FDE3F0C7FE6FF09F88B9
:1032B00093F70B0293E80B01639C07108327C1006F
:1032C000138747008327C100130E00002326E10067
:1032D00083AD07006F00801193F70B0213ED0B0114
:1032E0006394070C8327C100138747008327C1001D
:1032F0002326E10083AD070013DEFD4113070E0016
:10330000E35E07C4B307B0413337F000330EC0416A
:10331000330EEE401307D002A30DE1029306F0FF37
:10332000938D070013071000E31ADC9A9306100030
:10333000E302D7C493062000630ED70E9306010F55
:103340006F00800093060B009317DE0113F77D00DA
:1033500093DD3D0013070703B3EDB701135E3E0095
:10336000A38FE6FEB3E7CD01138BF6FFE39C07FCCA
:1033700093771D00638A070E930700036306F70E19
:103380009386E6FFA30FFBFE9307010FB38DD74093
:10339000930B0D00138B06006FF05F96EF40C00C8F
:1033A0006FF04FE3138D0B008327C10093877700E5
:1033B00093F787FF03A74700938687002326D10052
:1033C00083AD0700130E07006FF01FB993880B0041
:1033D0008327C10013877700137787FF832D0700AA
:1033E000032E4700930787002326F10013FDF8BF43
:1033F000130700006FF0DF8D138D0B008327C100D2
:1034000013877700137787FF93078700832D0700C3
:10341000032E47002326F100130710006FF05F8B87
:10342000930610006300D77E93062000138D0B00D7
:10343000E316D7F083260101130B010F93F7FD006C
:10344000B387F60083C707001317CE0193DD4D0045
:10345000130BFBFFB36DB701135E4E002300FB009F
:10346000B3E7CD01E39C07FC9307010FB38D6741E0
:10347000930B0D006FF09F8893051000130600005A
:10348000938604006FF05FB8330EAA41E356C09BE9
:1034900093050001E3D0C501973E0100938E0E1500
:1034A000232A610123244103130F0001930F7000AD
:1034B000130A0E00138B0E006F0080019305270086
:1034C0001304840013870600130A0AFF635C4F0588
:1034D0009387070193061700232064012322E40148
:1034E0002324F1042322D104E3DADFFC63840718E8
:1034F000130601049305090013850900EFF0CFB707
:10350000631A05F003274104130F0001130A0AFF91
:10351000832781041384040093051700930F700020
:10352000E3484FFB130E0A00930E0B00032A81029F
:10353000032B410113058400B387C7012320D40165
:103540002322C4012324F1042322B10413077000B1
:103550006350B73A6380075E1306010493050900C0
:1035600013850900EFF04FB1631605EA0327410404
:10357000330CBC41832781049306410513061700D1
:1035800013840400E35E808B9305000163DC85599E
:10359000973E0100938E8E05232A4101130E0001F0
:1035A000130F7000138A0E006F00800113062700AE
:1035B0001304840013870600130C0CFF635C8E0554
:1035C0009387070193061700232044012322C40197
:1035D0002324F1042322D104E35ADFFC6388070685
:1035E000130601049305090013850900EFF0CFA825
:1035F000631205E203274104130E0001130C0CFFB4
:10360000832781041384040013061700130F70002E
:10361000E3488EFB930E0A00032A410193058400C0
:10362000B38787012320D401232284012324F104BA
:103630002322C10413077000634CC71C1306160035
:1036400093868500138405006FF08FFF130610002A
:1036500013070000138404006FF01FF61306010423
:103660009305090013850900EFF00FA1E30C058213
:103670006FF04FDA93051000130700001384040065
:103680006FF09FE4638607041306010493050900A5
:103690001385090023240103232AF101EFF0CF9DB4
:1036A000631A05D603274104832781049306410545
:1036B000130617001384040003288102832F41019D
:1036C0006FF04FF1639A071E0347B1036312074877
:1036D00063860F1A9307C1032326F1049307200082
:1036E0002328F10413061000930641051307060072
:1036F0001384060013061600938686006FF04FF3BE
:10370000138D0B006FF09FC213060001635EC65558
:10371000973E0100938E8EEC23264103130604008E
:103720009302000193037000232AF1012324010373
:1037300013040E00138A0E006F00C00193052700CA
:103740001306860013870600130404FF63DC82045B
:103750009306170093870701232046012322560072
:103760002324F1042322D104E3DAD3FC638E070679
:10377000130601049305090013850900EFF0CF8FAC
:10378000631A05C80327410493020001130404FFD0
:1037900083278104138604009305170093037000A8
:1037A000E3C882FA930E0A00832F410103288102A5
:1037B000032AC102130E040013040600B387C701D5
:1037C0002320D4012322C4012324F1042322B104A1
:1037D00013077000E348B7EE130484001386150046
:1037E000138705006FF00FDB13070000930510002F
:1037F000138604006FF05FF56354AA01130A0D00ED
:1038000083278100B38747012324F1006FF08FE9FC
:103810006388071613060104930509001385090040
:10382000EFF08F85631805BE0326410483278104CA
:103830009306410513061600138404006FF04FE051
:1038400023220104138404006FF04FAB631C0C3A75
:10385000130C0000930D0000130B010F6FF00FCA43
:10386000930641051306100013070000138404009B
:103870006FF00FDC138D0C006FF08FA913070000A1
:103880009306410513061000138404006FF04FDA0D
:1038900093070003A307F10E130BF10E6FF00FC691
:1038A00003258905EFE00FBD0317C9009317070132
:1038B00093D707016FF00F941306010493050900D5
:1038C0001385090023240103232AF101EFE0DFFA25
:1038D000631205B403274104832781041384040081
:1038E0001306170003288102832F41016FF08FCA4E
:1038F0001386150093068500138705001304050041
:103900006FF08FD393F60B206392062C938D0700F4
:10391000130E00006FF04FBA8327810103C70C001C
:10392000638607A083C70700638207A093EB0B4061
:103930006FF0CF9F0326810083A706002326E100B6
:103940009356F64123A0C70023A2D7006FF04F93F0
:103950009306000393EB2B00A30EE102230ED1028A
:1039600013FDFBBF130720006FF08FB613050B008C
:10397000EF90D018930D0500130C00006FF00FB8F6
:103980001307100093870D00232661052328B10536
:103990002324B1052322E104930641056FF00FCEE5
:1039A00093770D40130B010F232AA101138D0700FC
:1039B00093870C002324810223263103930C0900F2
:1039C000930B000013090B000324810193090E00DF
:1039D000138B07006F0040021306A000930600003F
:1039E00013850D0093850900EFD0905D6380092653
:1039F000930D0500938905001306A00093060000AF
:103A000013850D0093850900EFE08025130505035C
:103A1000A30FA9FE938B1B001309F9FFE30E0DFA08
:103A200003470400E31A77FB9307F00FE386FBFAE2
:103A3000639E091C9307900063EAB71D032D4101A3
:103A400093070B00130B090013890C00938C0700DC
:103A50009307010F232C81008329C10203248102D3
:103A6000B38D6741930B0D006FF04FA903C71C0086
:103A700093EB0B02938C1C006FF04F8B03C71C0061
:103A800093EB0B20938C1C006FF04F8A8327C100AF
:103A900083A707002326E1000327810023A0E70076
:103AA0006FE01FFE93076000930D0C0063EE870923
:103AB000138D0D002326E100173B0100130B8BB182
:103AC0006FF04FAA93F60B206388060E93FDF70F55
:103AD000130E000093880B002326E1006FF01F9166
:103AE00093F70B20638C070A8327C100138D0B000B
:103AF0002326E100838D070013DEFD4113070E002E
:103B00006FF08FC593F60B20638E06062326E10027
:103B100093FDF70F130E0000138D0B001307100019
:103B20006FF00F9B93850600973E0100938E0EACBD
:103B30006FF01FAF93064105130610001307000036
:103B4000138404006FF04FAF930D60006FF05FF6C9
:103B50009307B1032326F104930710002328F104EF
:103B600013061000930641056FF0CFA58327C1000F
:103B70002326E1000327810083A707002390E700A5
:103B80006FE01FF02326E100938D0700130E000065
:103B9000138D0B00130710006FF08F938327C10064
:103BA000138D0B002326E10083AD070013DEFD41DA
:103BB00013070E006FF04FBA938D0700130E00002D
:103BC00093880B002326E1006FF05F8293FDF70FCF
:103BD000130E00006FF04F8E1306010493050900C9
:103BE00013850900EFE05FC9630405006FF08F8261
:103BF000232201046FF00F8203258905EFE00F896E
:103C00006FE0DFFD138D0B006FF08FB7832701028C
:103C10008325C101930B00003309F9401386070087
:103C200013050900EF904076034714001306A00027
:103C3000930600003337E00013850D0093850900DB
:103C40003304E400EFD0D0376FF09FDA9307900091
:103C5000E3E0B7DB6FF09FDE930D0C002326E1005D
:103C6000130C00006FF08F8993850600973E0100CA
:103C7000938ECE966FF09FB493051600973E010089
:103C8000938ECE956FF0CFBD9307F0FF2324F10004
:103C90006FE01FFA1385060093050600973E0100AA
:103CA000938ECE946FF05F890327C100032C070029
:103CB0009306470063540C00130CF0FF03C71C006D
:103CC0002326D100938C07006FE05FE68327490627
:103CD00093F71700E39A07FA8357C90093F7072071
:103CE000E39407FA032589059307F0FF2324F100E5
:103CF000EFD0DFF96FE0DFF393880B006FF08FDC1C
:103D0000138D0B006FF08FDE138D0B006FF08F9B08
:103D10009387411C93060600138605009305050052
:083D200003A507006FE0DFC5F9
:103D280083D7C500130101B703A3450683D8E5006F
:103D380003A8C501232481481384050083A54502EF
:103D480093F7D7FF1307004023202149231AF100D6
:103D580013090500930701071305010623261148D7
:103D680023229148232E31479304060093890600A5
:103D780023266106231B1101232201032326B102F6
:103D88002324F100232CF1002328E100232EE10055
:103D980023200102EFD09FEC1386040093860900CC
:103DA8009305810013050900EFE01FBD930405008A
:103DB800635205048357410193F70704638807009A
:103DC8008357C40093E707042316F400032501066C
:103DD800EFD05FE98320C14803248148138504009C
:103DE80003290148832441488329C1471301014914
:103DF800678000009305810013050900EF30C03B80
:103E0800E30A05FA9304F0FF6FF0DFFA83D7C500E1
:103E1800130101B703A3450683D8E50003A8C5012C
:103E2800232481481384050083A5450293F7D7FF0F
:103E38001307004023202149231AF1001309050024
:103E480093070107130501062326114823229148E9
:103E5800232E314793040600938906002326610622
:103E6800231B1101232201032326B1022324F1007D
:103E7800232CF1002328E100232EE1002320010256
:103E8800EFD0DFDD138604009386090093058100D7
:103E980013050900EF00400693040500635205046A
:103EA8008357410193F70704638807008357C400C9
:103EB80093E707042316F40003250106EFD09FDAE1
:103EC8008320C1480324814813850400032901483D
:103ED800832441488329C1471301014967800000B1
:103EE8009305810013050900EF30002DE30A05FA58
:083EF8009304F0FF6FF0DFFA04
:103F0000130101E12326111E2324811E2326711D86
:103F10002322B100930B06002326D1002322911EF9
:103F20002320211F232E311D232C411D232A511D07
:103F30002328611D2324811D2322911D2320A11DDF
:103F4000232EB11B13040500232EA100EF6050792E
:103F500083270500138507002328F102EF90003A1C
:103F60002324A1022328010E232A010E232C010E53
:103F7000232E010E6306040083278403E38607587B
:103F80008327410083A647060397C70093F61600D0
:103F90009317070193D707016398060093F607204C
:103FA000639406006F1000669396270163C80602AB
:103FB00003264100B7270000B367F70083264606B3
:103FC00037E7FFFF1307F7FF33F7E6002316F60086
:103FD000939707012322E60693D7070113F787007B
:103FE000630207160327410003270701630C071428
:103FF00013F7A7019306A000630AD716938C0B0052
:1040000003C70C009307C1102322F10E2326010ED3
:104010002324010E232C010023260102232C01025C
:10402000232E010223200104232201042324010062
:10403000130C0001138D0700032AC1016300076AF6
:10404000930650026314D7006F10D00C13840C0039
:104050006F00C000638CD714130409008347140059
:1040600013091400E39807FEB304994163880466BA
:104070008326C10E0327810E23209D01B38696005F
:104080001307170023229D002326D10E2324E10EBF
:1040900093067000130D8D0063C0E6128327810024
:1040A00003471400B38797002324F10063080762D5
:1040B0001303F0FF93041900034E1900A303010C2E
:1040C000130400001309000093099000130BA002D1
:1040D000930B030093841400930A0E001307A005AA
:1040E00093870AFE6360F72897260100938606519E
:1040F00093972700B387D70083A70700B387D7001C
:104100006780070013050A00EF60905D8327450074
:10411000138507002322F104EF90401E2320A10401
:10412000930A050013050A00EF60905B8327850062
:10413000232EF10263840A006F10405B03CE04005B
:104140006FF05FF9032441000325C10193050400CA
:10415000EF201034630405006F20900B8357C400D8
:104160009306A00013F7A701E31AD7E883264100BE
:104170000397E600E34407E803A746061377170012
:104180006318070093F70720639407006F10103E31
:104190008326C100832541000325C10113860B003E
:1041A000EFF05FC72324A1006F004007B3049941DB
:1041B000E38004F06FF0DFEB832541001306410E2E
:1041C00013050A00EFE04FFA631A0502130DC11040
:1041D0006FF0DFEC832541001306410E13050A0042
:1041E000EFE08FF86308054C83270101638807001F
:1041F0000325C10193850700EF30100A8327410092
:1042000003A7470683D7C70013771700630E070479
:1042100093F70704638407006F2040418320C11E89
:104220000324811E032581008324411E0329011ECE
:104230008329C11D032A811D832A411D032B011DD2
:10424000832BC11C032C811C832C411C032D011CBE
:10425000832DC11B1301011F678000001369090230
:1042600003CE04006FF01FE713F70720E31207FAED
:104270000324410003258405EFD05FA18357C400C8
:104280006FF01FF997270100938787332326F102E8
:104290009377090213830B00638007108327C10003
:1042A0009387770093F787FF83AB070083AD4700C1
:1042B000138787002326E10093771900638807009E
:1042C000B3E7BB01638407006F1080449379F9BFA3
:1042D00093072000A303010C1307F0FFE30EE31A7A
:1042E00033E7BB0113F9F9F7630407006F00107C93
:1042F000E312032C6392072813FB1900930C011B94
:1043000063040B006F10803C93090B0063546B0037
:10431000930903000347710C2328010023220102A3
:1043200023200102232A0100630C07289389190026
:104330006F0000291304000093860AFD9384140083
:104340009317240083CAF4FFB3878700939717005D
:104350003384F60093860AFDE3F2D9FE93870AFEC2
:10436000E374F7D8638C0A3623065115A303010CB6
:1043700093091000130B1000930CC1146F0000235D
:1043800097270100938787222326F102937709025A
:1043900013830B00E39407F00327C100937709010F
:1043A000832B0700130747002326E10063840700DF
:1043B0006F10403393770904639407006F10003245
:1043C000939B0B0193DB0B01930D00006FF0DFEE6D
:1043D00003CE0400136949006FF0DFCF83CA0400E5
:1043E0009387140063946A016F20C06993860AFD65
:1043F00093840700930B0000E3E4D9CE9384140068
:1044000093972B0083CAF4FFB38777019397170024
:10441000B38BD70093860AFDE3F2D9FE6FF05FCC31
:104420009307B002A303F10C03CE04006FF09FCA00
:104430008327C10003CE040003A40700938747002D
:104440002326F100E35804C833048040136949006F
:104450006FF05FC81369190003CE04006FF09FC7A7
:104460001369090803CE04006FF0DFC693770902D1
:1044700013830B0093690901E398070E8327C1009A
:10448000938747000327C100930D00002326F10006
:10449000832B0700930710006FF0DFE38327C10031
:1044A000A303010C13830B0083AC0700938B47001D
:1044B00063940C006F1000441307F0FF6314E300D3
:1044C0006F108069130603009305000013850C002C
:1044D00023266100EF6090512328A1000323C1002F
:1044E000631405006F20400983270101338B974136
:1044F0000347710C9349FBFF93D9F94123267101BE
:10450000232801002322010223200102232A010083
:10451000B3793B0113030000E31A07E06F00400A80
:104520001369890003CE04006FF0DFBA93770902A4
:1045300013830B00936909016390077E8327C100F1
:10454000938747000327C1002326F100832B070030
:1045500093DDFB4113870D00634E07709307F0FF57
:10456000E308F302B3E7BB0113F9F9F7E39007029D
:10457000630403006F10D03C13030000130B000012
:10458000930C011B6FF05FD80327C100A303010C3C
:104590009309100083270700130747002326E10033
:1045A0002306F114130B1000930CC11423280100EF
:1045B000130300002322010223200102232A010009
:1045C000937F290063840F0093892900937D490814
:1045D0000327C10E63960D0033083441E34C004DB0
:1045E0008346710C638A06028326810E1306710CC2
:1045F0002320CD0013071700130610009386160022
:104600002322CD002326E10E2324D10E13067000B1
:10461000130D8D00634ED60C638A0F028326810E24
:104620001306810C2320CD0013072700130620005A
:10463000938616002322CD002326E10E2324D10EDB
:1046400013067000130D8D00E348D658930600083A
:10465000E384DD10B30B6341E344702193760910CA
:104660006398067A8327810E3307670123209D0113
:104670009387170023226D012326E10E2324F10ED8
:1046800093067000130D8D00E3C0F63013794900D6
:10469000630609003309344163442009635434013B
:1046A0001384090083278100B38787002324F10046
:1046B000E31207B2832701012324010E6388070058
:1046C0008325010113050A00EF30003D130DC110D1
:1046D000938C040003C70C00E31407968327C10ED4
:1046E000638407006F1080632324010E6FF01FB1F5
:1046F000832541001306410E13050A00232461049B
:10470000232AF103EFE04FA6E31005AE0327C10E05
:10471000130DC11003238104832F41036FF0DFEFDA
:104720008327810E972B0100938B4B0563502C0739
:10473000130B7000832A41006F00C000130909FFAA
:1047400063562C05130707019387170023207D016B
:1047500023228D012326E10E2324F10E130D8D005B
:10476000E35EFBFC1306410E93850A0013050A0065
:10477000EFE08F9FE31A05A6130909FF0327C10E77
:104780008327810E130DC110E34E2CFB3307270145
:104790009387170023207D0123222D012326E10E7C
:1047A0002324F10E93067000E3DAF6EE8325410030
:1047B0001306410E13050A00EFE00F9BE31605A256
:1047C0000327C10E6FF09FED1377890013830B0051
:1047D000E31E07748327C1001305010B2328710111
:1047E0009387770093F787FF83A5070003A6470009
:1047F000938787002326F100EF1041410327010B27
:10480000032301012328E10E0327410B232AE10E94
:104810000327810B232CE10E0327C10B232EE10E6E
:104820001305010F23286100EF60C0642326A10C4B
:1048300013072000032301016314E5006F108016A5
:10484000130710006314E5006F10C037130710063C
:104850006394EA006F105073130710046394EA0026
:104860006F10805193F7FAFD1307F0FF2324F10432
:104870006314E3006F105073130770046394E70030
:104880006F109071032BC10F232A210513670910A4
:10489000032F010F832D410F832E810F63540B00D3
:1048A0006F101032232E0104130907002328010082
:1048B00003278104930760046314F7006F10D03B53
:1048C000930750046314F7006F10D05E930B010B35
:1048D0009307010D1307C10C930603001308C10DC4
:1048E0001306200093850B0013050A0023206102A4
:1048F0002328E10B232CE101232CD10B232AD10106
:10490000232AB10B232E610BEF50802783278104CC
:1049100013077004930C0500832E4101032F8101BE
:10492000032301026384E7006F20001B83274105F6
:1049300013F71700630407006F1010640327C10DFD
:10494000B3079741232CF1008327C10C1307700490
:10495000232AF100832781046394E7006F10C07E4F
:1049600083278104130760046394E7006F10D04627
:10497000832741019305100493F6FA0F1387F7FF7D
:10498000832781042326E10C130600006398B700F7
:104990009386F60093F6F60F13061000230AD10C47
:1049A0009306B002635A07008327410113071000E2
:1049B0009306D0023307F740A30AD10C9306900068
:1049C00063C4E6006F10906F1308310E13060800E1
:1049D0001305A000130330066F00C0001386050006
:1049E00013870600B367A7029305F6FF93870703B3
:1049F000A30FF6FEB346A702E342E3FE13870603C6
:104A00001377F70F9306E6FFA38FE5FE63E4060135
:104A10006F20800A9305610D6F00800003C70600B8
:104A20009385150093861600A38FE5FEE39806FF95
:104A30001307510E9307610D3307C7403387E70013
:104A40009306410DB307D740232CF1028327810140
:104A50008326810313071000338BD7006344F700CC
:104A60006F10907283278102330BFB00832741056F
:104A70009349FBFF93D9F94113F9F7BF1369091063
:104A8000B3793B012322010223200102232A0100E2
:104A90008327C105639407006F10006D1307D002D0
:104AA000A303E10C13030000938919006FF05FB1B9
:104AB0009377090213830B00136909016390072898
:104AC0008327C100938747000327C100930D00008F
:104AD0002326F100832B07006F000028937709023B
:104AE00013830B00639007288326C1001377090105
:104AF0009387460083AB0600630407006F10507B6A
:104B000013770904631407006F108007939B0B0150
:104B10002326F10093DB0B01930D0000930909009C
:104B2000930710006FF00FFB8347710C03CE040056
:104B3000639207DA93070002A303F10C6FF08FD999
:104B40000327C100B787FFFF93C707832314F10C26
:104B5000930747002326F10097270100938747A674
:104B600013830B002326F102832B0700930D000013
:104B70009369290093072000930A80076FF08FF54F
:104B80009377090213830B00639A071A8326C100E7
:104B9000137709019387460083AB0600E31607F2FB
:104BA00013770904631407006F00107C939B0B01BB
:104BB00093DB0B01930D00002326F1006F00C01959
:104BC0008326C1009377090213874600E39A0738CA
:104BD00093770901E39C07649377090463840700D2
:104BE0006F10001113790920E30209648327C100C3
:104BF0002326E1000327810083A70700938C04008C
:104C00002380E7006FF01FAD03CE04009307C006BA
:104C1000E302FE40136909016FF0CFCB03CE04001D
:104C200093078006E300FE3E136909046FF08FCA04
:104C30009377090213830B00639E070C8327C1003F
:104C40001377090193874700630407006F10D0654D
:104C500013770904E30607740327C1002326F10034
:104C600093090900831B070093DDFB4113870D00A7
:104C7000E356078EB30B7041B3377001B30DB041EB
:104C8000B38DFD409307D002A303F10C1307F0FF8F
:104C9000930710006316E3E413071000638AE70E1E
:104CA000130720006384E7129306011B6F00800046
:104CB00093860C009397DD0113F77B0093DB3B0099
:104CC00013070703B3EB770193DD3D00A38FE6FEE7
:104CD000B3E7BB01938CF6FFE39C07FC13F61900C6
:104CE0006300061213060003630CC7109386E6FFE9
:104CF0009307011BA38FCCFE338BD7401389090088
:104D0000938C06006FF04FE00325C101EF20C075C2
:104D10006FF00FA7930909008327C10093877700DD
:104D200093F787FF03A74700938687002326D100C8
:104D300083AB0700930D07006FF01F828327C1002C
:104D40009387770093F787FF83AB070083AD470016
:104D5000138787002326E1009379F9BF93070000AA
:104D60006FF04FD7930909008327C100938777001D
:104D700093F787FF1387870083AB070083AD470056
:104D80002326E100930710006FF0CFD493090900A8
:104D9000E39A0D2893079000E3E67729938B0B03A2
:104DA000A307711B13890900130B1000930CF11A50
:104DB0006FF08FD5130710006394E7006F10403831
:104DC0001307200093090900E390E7EE8326C10250
:104DD000930C011B93F7FB00B387F60083C7070012
:104DE0001397CD0193DB4B00938CFCFFB36B7701E2
:104DF00093DD4D002380FC00B3E7BB01E39C07FC7F
:104E00009307011B338B9741138909006FF0CFCFB4
:104E10009306500663DA56398326010F9305010A7B
:104E20001305010B2328D10A8326410F232AE1020F
:104E30002320010A232AD10A8326810F2322010A73
:104E40002324010A232CD10A8326C10F2326010A19
:104E5000232ED10AEFE0C003032741036314055A50
:104E60008327810E9726010093860691130717006A
:104E70002320DD0093871700930610002322DD0016
:104E80002326E10E2324F10E13077000130D8D006D
:104E9000E34EF72C8327C10C0327810163CAE70087
:104EA00093771900639607000327C10E6FF00FFE7A
:104EB00083270103832681020327C10E2320FD00DF
:104EC0008327810E3387E6002322DD0093871700B6
:104ED0002326E10E2324F10E93067000130D8D009E
:104EE000E3C0F61083278101138BF7FF635060FB4B
:104EF0008327810EE35C6C29930B7000832A4100A9
:104F00006F00C000130B0BFFE3526C29130707015E
:104F10009387170097260100938646872320DD009C
:104F200023228D012326E10E2324F10E130D8D0083
:104F3000E3DAFBFC1306410E93850A0013050A0011
:104F4000EFD09FA2631205AA0327C10E8327810E0B
:104F5000130DC1106FF01FFBB30B3441635C70EF96
:104F60008326810E63547C0B232A910293070D0044
:104F700093840B00138D0C00938B0900930C0B0092
:104F800093090400930D700003244100130B0300E8
:104F90006F00C000938404FF635A9C041307070149
:104FA00093861600171601001306467E23A0C7003D
:104FB00023A287012326E10E2324D10E93878700A5
:104FC000E3DADDFC1306410E9305040013050A0025
:104FD000EFD09F99631A05A0938404FF0327C10EA5
:104FE0008326810E9307C110E34A9CFA13840900BB
:104FF00093890B00938B04008324410313030B005C
:10500000138B0C00930C0D00138D070033077701F1
:105010009386160097170100938747772320FD009A
:1050200023227D012326E10E2324D10E13067000D6
:10503000130D8D006350D6E2832541001306410E07
:1050400013050A00232A6102EFD01F92631E059800
:105050000327C10E130DC110032341036FF08FDF2F
:105060008326810E63587C09232A9102930D7000D8
:1050700093840B00930B0B00138B0900930904001E
:10508000032441006F00C000938404FF635A9C0412
:105090001307070193861600971701009387076F80
:1050A0002320FD0023228D012326E10E2324D10E8F
:1050B000130D8D00E3DADDFC1306410E93050400A9
:1050C00013050A00EFD05F8A63100592938404FFF2
:1050D0000327C10E8326810E130DC110E34A9CFAEB
:1050E0001384090093090B00138B0B00938B0400AE
:1050F0008324410333077701938616009717010035
:105100009387C7682320FD0023227D012326E10E1B
:105110002324D10E13067000130D8D006350D6D4D6
:10512000832541001306410E13050A00EFD0DF83EB
:10513000631C058A0327C10E130DC1106FF00FD237
:1051400093751900639205082322DD002326E10EE2
:105150002324610F9307700063CC6765930A2600D0
:10516000130D0D01832681039307410D23A0FB003E
:105170003387E60023A2DB002326E10E2324510F10
:105180009307700063D457D1832541001306410E65
:1051900013050A00EFD04FFD631805840327C10EE5
:1051A000130DC1106FF08FCE0326810E832781016E
:1051B0009306100023209D0113071700130B160000
:1051C000930B8D00E3DEF6F6930610002322DD003C
:1051D0002326E10E2324610F9306700063C06675D9
:1051E0008327810283260103130B1B003307F7007B
:1051F00023A0DB0023A2FB002326E10E2324610F62
:1052000093067000938B8B0063CE66738326010F29
:105210008327810113081B002328D10A8326410F0D
:105220009305010A1305010B232AD10A8326810F56
:105230002322E102930A0800232CD10A8326C10FFE
:10524000232001032320010A232ED10A9386F7FF8E
:10525000232AD1002322010A2324010A2326010A3A
:10526000EFD01043138D8B008326410103280102E8
:1052700003274102630C053093871C003307D700D6
:1052800023A0FB0023A2DB002326E10E2324510FE1
:105290009307700063CE575193870B01930A2B003D
:1052A000930B0D00138D07006FF0DFEB93090900DE
:1052B0006FF09F9E8326810E971B0100938B0B4CF2
:1052C00063500C0D232491042326210593070D0020
:1052D00013890B00138D0C00938B0900930C0B00AA
:1052E0009309040093027000232AF10383244100F0
:1052F000130B0300130408006F00C000130404FF25
:10530000635A8C04130707019386160023A0270114
:1053100023A287012326E10E2324D10E9387870041
:10532000E3DED2FC1306410E9385040013050A0048
:10533000EFD08FE3630405006FE01FEB130404FF5D
:105340000327C10E8326810E9307C11093027000BC
:10535000E34A8CFA13080400832F410313840900E5
:105360008324810493890B00930B09000329C10452
:1053700013030B00138B0C00930C0D00138D07000F
:10538000330707019386160023207D0123220D0198
:105390002326E10E2324D10E13067000130D8D0079
:1053A0006350D6A4832541001306410E13050A005D
:1053B00023246104232AF103EFD00FDB63040500EB
:1053C0006FE09FE20327C10E130DC1100323810478
:1053D000832F41036FF0CFA0832541001306410EB8
:1053E00013050A00232A6102EFD00FD863040500D9
:1053F0006FE09FDF0327C10E130DC110032341038C
:105400006FF0CFA40326C10C635CC0208327810109
:1054100083264101138B070063D4F600138B06002B
:10542000635860038326810E3307670123209D01A3
:105430009386160023226D012326E10E2324D10E2C
:1054400013067000130D8D006354D6006F001079A1
:105450009346FBFF8327410193D6F641337BDB0064
:10546000338B67416342605F832741019376094034
:10547000B38AFC00E39E0654032BC10C83278101F1
:105480006346FB0093761900E3820600832601033E
:1054900083278102130670002320DD008326810EFE
:1054A0003307F7002322FD00938616002326E10E22
:1054B0002324D10E130D8D006354D6006F104009C4
:1054C00083268101B387DC00338B6641B387574164
:1054D000930B0B0063D46701938B07006358700331
:1054E0008327810E3307770123205D0193871700FF
:1054F00023227D012326E10E2324F10E9306700062
:10550000130D8D0063D4F6006F10400F93C7FBFF9F
:1055100093D7F741B3FBFB00330B7B416358609794
:105520008327810E63546C47930B7000832A4100DC
:105530006F00C000130B0BFF635A6C451307070184
:105540009387170097160100938646242320DD00D9
:1055500023228D012326E10E2324F10E130D8D004D
:10556000E3DAFBFC1306410E93850A0013050A00DB
:10557000EFD08FBF630405006FE01FC70327C10E84
:105580008327810E130DC1106FF0DFFAE35CD0BCEE
:105590006344DC006F10804E930A7000138D060088
:1055A000832C4100130B08006F000001130D0DFF49
:1055B0006358AC1D130B1B0013070701971701005D
:1055C0009387C71C23A0FB0023A28B012326E10E97
:1055D0002324610F938B8B00E3DA6AFD1306410EDF
:1055E00093850C0013050A00EFD00FB86304050083
:1055F0006FE09FBF0327C10E032B810E930BC110D9
:105600006FF0DFFA0324410003258405EFC08FE625
:105610000317C4009317070193D707016FE0DF98C2
:105620008326810E97150100938505152320BD0063
:105630001307170093051000938616002322BD0060
:105640002326E10E2324D10E93057000130D8D0047
:1056500063C6D55E631006468327810193761900E1
:10566000B3E6F600639406006FF04F8283260103D1
:1056700083278102130670002320DD008326810E1C
:105680003307F7002322FD00938616002326E10E40
:105690002324D10E93088D006342D66A83278101AB
:1056A0009386160023A098013387E70023A2F80011
:1056B0002326E10E2324D10E93077000138D88005A
:1056C00063C4D7006FE09FFC6FF01FAC930700032B
:1056D000A307F11A930CF11A6FE01FC39377092007
:1056E0006394075C930D00006FE01FBD8327C10327
:1056F00003CE0400639407006FE0DF9D83C70700BB
:10570000639407006FE01F9D136909406FE09F9C41
:1057100093070003136929002304F10CA304510D1E
:105720009379F9BF930720006FE0DFBA8327C100A8
:1057300003A70700938747002326F100832507006E
:1057400003264700832687000327C7002328B10EBE
:10575000232AC10E232CD10E232EE10E6FF04F8C85
:105760000326810083A706002326E1009356F64115
:1057700023A0C70023A2D700938C04006FE09FF5FD
:1057800093060D00930A1B0093878B003307D70005
:1057900017160100130686FF23A2DB0023A0CB000F
:1057A0002326E10E2324510F9306700063DC564B31
:1057B000832541001306410E13050A00EFD0CF9A4E
:1057C000630405006FE05FA20326810E0327C10E6C
:1057D000130D4111930A1600930BC1106FF09F989F
:1057E000832541001306410E13050A00EFD0CF9721
:1057F000630405006FE05F9F0327C10E130DC11006
:105800006FF04FEE03CE1400136909209384140047
:105810006FE05F8C03CE14001369090293841400B7
:105820006FE05F8B930C011B9307000013F9094095
:1058300023289100232A3101130BF00F93890C00C8
:1058400023206102930C0A008324C103138A0D00F4
:10585000930D0D00130D0400138407006F00400228
:105860001306A0009306000013850B0093050A00A1
:10587000EFB01075E30C0A3E930B0500138A050088
:105880001306A0009306000013850B0093050A0081
:10589000EFC0003D13050503A38FA9FE13041400F8
:1058A0009389F9FFE30E09FA83C60400E31AD4FAD8
:1058B000E30864FBE31C0A3693079000E3E87737BC
:1058C000138A0C00938C0900832941019307011B63
:1058D000232C8100232E910213040D0003230102C7
:1058E00083240101138D0D00338B97411389090027
:1058F0006FE09FA193076000130B030063EC673612
:1059000093090B0023267101971C0100938C8CCC0A
:105910006FE0DFC913890C006FE08FF98325410028
:105920001306410E13050A00EFD00F84630405002F
:105930006FE09F8B0327C10E032B810E930BC110C9
:105940006FF01F8A832541001306410E13050A00DC
:10595000EFD08F81630405006FE01F890327C10E1C
:10596000032B810E930BC1106FF05F8A83254100DA
:105970001306410E13050A00EFC01FFF6304050064
:105980006FE09F86130DC1106FF0CFD09716010006
:105990009386C6DF33076701938717002320DD0056
:1059A0006FE05FCD8327010F9305010A1305010BFB
:1059B0002328F10A8327410F2320010A2322010A09
:1059C000232AF10A8327810F2324010A2326010AAF
:1059D000232CF10A8327C10F232EF10AEFD0406F49
:1059E000634E05280347710C93067004971C010051
:1059F000938C8CD763D65601971C0100938C0CD7DF
:105A0000232801002322010223200102232A01006E
:105A10001379F9F793093000130B300013030000DA
:105A2000630407006FE09F906FE09FB98327C10078
:105A3000938C040083A707002326E100032781003D
:105A400023A0E7006FE01FC98326810E63506C1B03
:105A5000930A7000832B41006F00C000130B0BFFF3
:105A600063566C19130707019386160097170100F8
:105A70009387C7D12320FD0023228D012326E10E29
